{
  "contractName": "SimpleBank",
  "abi": [
    {
      "inputs": [],
      "stateMutability": "nonpayable",
      "type": "constructor"
    },
    {
      "anonymous": false,
      "inputs": [
        {
          "indexed": true,
          "internalType": "string",
          "name": "owner",
          "type": "string"
        },
        {
          "indexed": false,
          "internalType": "uint256",
          "name": "money",
          "type": "uint256"
        }
      ],
      "name": "Deposit",
      "type": "event"
    },
    {
      "anonymous": false,
      "inputs": [
        {
          "indexed": true,
          "internalType": "string",
          "name": "from",
          "type": "string"
        },
        {
          "indexed": true,
          "internalType": "string",
          "name": "to",
          "type": "string"
        },
        {
          "indexed": false,
          "internalType": "uint256",
          "name": "money",
          "type": "uint256"
        }
      ],
      "name": "Transfer",
      "type": "event"
    },
    {
      "inputs": [],
      "name": "name",
      "outputs": [
        {
          "internalType": "string",
          "name": "",
          "type": "string"
        }
      ],
      "stateMutability": "view",
      "type": "function",
      "constant": true
    },
    {
      "inputs": [],
      "name": "code",
      "outputs": [
        {
          "internalType": "string",
          "name": "",
          "type": "string"
        }
      ],
      "stateMutability": "view",
      "type": "function",
      "constant": true
    },
    {
      "inputs": [
        {
          "internalType": "string",
          "name": "account",
          "type": "string"
        },
        {
          "internalType": "uint256",
          "name": "money",
          "type": "uint256"
        }
      ],
      "name": "deposit",
      "outputs": [
        {
          "internalType": "bool",
          "name": "",
          "type": "bool"
        }
      ],
      "stateMutability": "nonpayable",
      "type": "function"
    },
    {
      "inputs": [
        {
          "internalType": "string",
          "name": "from",
          "type": "string"
        },
        {
          "internalType": "string",
          "name": "to",
          "type": "string"
        },
        {
          "internalType": "uint256",
          "name": "money",
          "type": "uint256"
        }
      ],
      "name": "transfer",
      "outputs": [
        {
          "internalType": "bool",
          "name": "",
          "type": "bool"
        }
      ],
      "stateMutability": "nonpayable",
      "type": "function"
    },
    {
      "inputs": [
        {
          "internalType": "string",
          "name": "account",
          "type": "string"
        }
      ],
      "name": "balance",
      "outputs": [
        {
          "internalType": "uint256",
          "name": "",
          "type": "uint256"
        }
      ],
      "stateMutability": "view",
      "type": "function",
      "constant": true
    }
  ],
  "bytecode": "0x608060405234801561001057600080fd5b506040518060400160405280600981526020017f64656d6f5f62616e6b00000000000000000000000000000000000000000000008152506001908051906020019061005c9291906100ae565b506040518060400160405280600481526020017f3039303900000000000000000000000000000000000000000000000000000000815250600290805190602001906100a89291906100ae565b5061014b565b828054600181600116156101000203166002900490600052602060002090601f016020900481019282601f106100ef57805160ff191683800117855561011d565b8280016001018555821561011d579182015b8281111561011c578251825591602001919060010190610101565b5b50905061012a919061012e565b5090565b5b8082111561014757600081600090555060010161012f565b5090565b610a578061015a6000396000f3fe608060405234801561001057600080fd5b50600436106100575760003560e01c806306fdde031461005c57806324c12bf6146100df5780633d80b532146101625780638e27d719146102315780639b80b0501461030c575b600080fd5b61006461047e565b6040518080602001828103825283818151815260200191508051906020019080838360005b838110156100a4578082015181840152602081019050610089565b50505050905090810190601f1680156100d15780820380516001836020036101000a031916815260200191505b509250505060405180910390f35b6100e7610520565b6040518080602001828103825283818151815260200191508051906020019080838360005b8381101561012757808201518184015260208101905061010c565b50505050905090810190601f1680156101545780820380516001836020036101000a031916815260200191505b509250505060405180910390f35b61021b6004803603602081101561017857600080fd5b810190808035906020019064010000000081111561019557600080fd5b8201836020820111156101a757600080fd5b803590602001918460018302840111640100000000831117156101c957600080fd5b91908080601f016020809104026020016040519081016040528093929190818152602001838380828437600081840152601f19601f8201169050808301925050505050505091929192905050506105c2565b6040518082815260200191505060405180910390f35b6102f46004803603604081101561024757600080fd5b810190808035906020019064010000000081111561026457600080fd5b82018360208201111561027657600080fd5b8035906020019184600183028401116401000000008311171561029857600080fd5b91908080601f016020809104026020016040519081016040528093929190818152602001838380828437600081840152601f19601f82011690508083019250505050505050919291929080359060200190929190505050610634565b60405180821515815260200191505060405180910390f35b6104666004803603606081101561032257600080fd5b810190808035906020019064010000000081111561033f57600080fd5b82018360208201111561035157600080fd5b8035906020019184600183028401116401000000008311171561037357600080fd5b91908080601f016020809104026020016040519081016040528093929190818152602001838380828437600081840152601f19601f820116905080830192505050505050509192919290803590602001906401000000008111156103d657600080fd5b8201836020820111156103e857600080fd5b8035906020019184600183028401116401000000008311171561040a57600080fd5b91908080601f016020809104026020016040519081016040528093929190818152602001838380828437600081840152601f19601f8201169050808301925050505050505091929192908035906020019092919050505061074f565b60405180821515815260200191505060405180910390f35b606060018054600181600116156101000203166002900480601f0160208091040260200160405190810160405280929190818152602001828054600181600116156101000203166002900480156105165780601f106104eb57610100808354040283529160200191610516565b820191906000526020600020905b8154815290600101906020018083116104f957829003601f168201915b5050505050905090565b606060028054600181600116156101000203166002900480601f0160208091040260200160405190810160405280929190818152602001828054600181600116156101000203166002900480156105b85780601f1061058d576101008083540402835291602001916105b8565b820191906000526020600020905b81548152906001019060200180831161059b57829003601f168201915b5050505050905090565b600080826040518082805190602001908083835b602083106105f957805182526020820191506020810190506020830392506105d6565b6001836020036101000a0380198251168184511680821785525050505050509050019150509081526020016040518091039020549050919050565b6000816000846040518082805190602001908083835b6020831061066d578051825260208201915060208101905060208303925061064a565b6001836020036101000a038019825116818451168082178552505050505050905001915050908152602001604051809103902060008282540192505081905550826040518082805190602001908083835b602083106106e157805182526020820191506020810190506020830392506106be565b6001836020036101000a03801982511681845116808217855250505050505090500191505060405180910390207f135290006f1871309577d248cf00619459a79b4a735638108a2bb080319c90d6836040518082815260200191505060405180910390a26001905092915050565b6000816000856040518082805190602001908083835b602083106107885780518252602082019150602081019050602083039250610765565b6001836020036101000a0380198251168184511680821785525050505050509050019150509081526020016040518091039020541161082f576040517f08c379a00000000000000000000000000000000000000000000000000000000081526004018080602001828103825260158152602001807f62616c616e6365206973206e6f7420656e6f756768000000000000000000000081525060200191505060405180910390fd5b816000856040518082805190602001908083835b602083106108665780518252602082019150602081019050602083039250610843565b6001836020036101000a038019825116818451168082178552505050505050905001915050908152602001604051809103902060008282540392505081905550816000846040518082805190602001908083835b602083106108dd57805182526020820191506020810190506020830392506108ba565b6001836020036101000a038019825116818451168082178552505050505050905001915050908152602001604051809103902060008282540192505081905550826040518082805190602001908083835b60208310610951578051825260208201915060208101905060208303925061092e565b6001836020036101000a0380198251168184511680821785525050505050509050019150506040518091039020846040518082805190602001908083835b602083106109b2578051825260208201915060208101905060208303925061098f565b6001836020036101000a03801982511681845116808217855250505050505090500191505060405180910390207f5358be4df107be4d9b023fc323f41d7109610225c6ef211b9d375b9fbd7ccc4f846040518082815260200191505060405180910390a360019050939250505056fea2646970667358221220fe3e27813209618e59ae25c11c8963e26cd0be07fa4149dd38faebf66dded5fd64736f6c634300060c0033",
  "immutableReferences": {},
  "source": "// SPDX-License-Identifier: MIT\npragma solidity ^0.6.2;\n\ncontract SimpleBank {\n    mapping (string => uint256) private _balances; // State variable\n\n    string private _name; \n    string private _code;\n\n    event Deposit(string indexed owner, uint256 money);\n    event Transfer(string indexed from, string indexed to, uint256 money);\n\n    constructor () public {\n        _name = \"demo_bank\";\n        _code = \"0909\";\n    }\n\n    function name() public view returns (string memory) {\n        return _name;\n    } \n\n    function code() public view returns (string memory) {\n        return _code;\n    }\n\n    function deposit(string memory account, uint256 money) public returns (bool) {\n        _balances[account] += money;\n        emit Deposit(account, money);\n        return true;\n    }\n\n    function transfer(string memory from, string memory to, uint256 money) public returns (bool) {\n        require(_balances[from] > money, \"balance is not enough\");\n        _balances[from] -= money;\n        _balances[to] += money;\n        emit Transfer(from, to, money);\n        return true;\n    }\n\n    function balance(string memory account) public view returns (uint256) {\n        return _balances[account];\n    }\n}",
  "sourcePath": "/Users/vic/projects/sol-practice/contracts/Bank.sol",
  "compiler": {
    "name": "solc",
    "version": "0.6.12+commit.27d51765.Emscripten.clang"
  },
  "schemaVersion": "3.3.4",
  "updatedAt": "2021-03-18T13:58:55.805Z",
  "networkType": "ethereum",
  "devdoc": {
    "kind": "dev",
    "methods": {},
    "version": 1
  },
  "userdoc": {
    "kind": "user",
    "methods": {},
    "version": 1
  }
}